:0400000070EF00F0AD
:100008001B82FACF04F0FBCF05F0E9CF06F0EACF68
:1000180007F0E1CF08F0E2CF09F0D9CF0AF0DACF44
:100028000BF0F3CF0CF0F4CF0DF0F6CF0EF0F7CFC6
:100038000FF0F8CF10F0F5CF11F01BC012F01CC074
:1000480013F01DC014F01EC015F0F2A21ED08B686C
:10005800000E026EC80E016EC1EC00F0000E8B6E31
:10006800000E026EC80E016EC1EC00F08B68000E27
:10007800026EC80E016EC1EC00F0000E8B6E000E11
:10008800026EC80E016EC1EC00F0F29215C01EF0AF
:1000980014C01DF013C01CF012C01BF011C0F5FFF6
:1000A80010C0F8FF0FC0F7FF0EC0F6FF0DC0F4FF39
:1000B8000CC0F3FF0BC0DAFF0AC0D9FF09C0E2FF8A
:1000C80008C0E1FF07C0EAFF06C0E9FF05C0FBFF63
:1000D80004C0FAFF1B921100D1EF00F095EC00F07C
:1000E8009380000E946EF28EF288F292F19C000ECC
:1000F8001A6E010E196ED8901934196E1A341A6EC8
:100108001A041910D8A404D0000E1A6E010E196E24
:1001180019C08BFF000E176E640E166EB1EC00F05E
:10012800EAD7000E0F01386F000E396F000E3A6FD4
:10013800000E3B6F000E3C6FB00E426F300EC16E6A
:10014800830EC06E000E896E000E8A6E000E8B6ED6
:10015800000E8C6E000E8D6E120016501710D8B45B
:100168001200150E186EC60EE82EFED7182EFCD7F4
:1001780000D01606D8A01706F0D701500210D8B440
:100188001200150E036EC60EE82EFED7032EFCD7FE
:1001980000D00106D8A00206F0D71B901B920001E0
:0401A80072EF00F002
:020000040020DA
:08000000FFFFFFFFFFFFFFFF00
:020000040030CA
:0E000000FF251F3FFFBF85FF0FC00FE00F4021
:00000001FF
